{
  "transactions": [
    {
      "hash": "0x9019649d999cba468da0b5c00b6a59e9e21e042398aa0383112bfc3312d642d0",
      "transactionType": "CALL",
      "contractName": null,
      "contractAddress": "0x18084fba666a33d37592fa2633fd49a74dd93a88",
      "function": "approve(address,uint256)",
      "arguments": [
        "0x6dec370EfA894d48D8C55012B0Cd6f3C1C7C4616",
        "32376812957906516"
      ],
      "transaction": {
        "from": "0x6969acca95b7fb9631a114085eeebd161ec19f25",
        "to": "0x18084fba666a33d37592fa2633fd49a74dd93a88",
        "gas": "0x19c0a",
        "value": "0x0",
        "input": "0x095ea7b30000000000000000000000006dec370efa894d48d8c55012b0cd6f3c1c7c46160000000000000000000000000000000000000000000000000073068a3350b654",
        "nonce": "0xa9",
        "chainId": "0x1"
      },
      "additionalContracts": [],
      "isFixedGasLimit": false
    },
    {
      "hash": "0xd1f1c783dc7ae95b97b71d4d32b21ef30a84390193d0d8877b2255d8aa21a8c4",
      "transactionType": "CALL",
      "contractName": null,
      "contractAddress": "0x6dec370efa894d48d8c55012b0cd6f3c1c7c4616",
      "function": "deposit(uint256,address)",
      "arguments": [
        "32376812957906516",
        "0x6969acca95B7fb9631a114085eEEBd161EC19f25"
      ],
      "transaction": {
        "from": "0x6969acca95b7fb9631a114085eeebd161ec19f25",
        "to": "0x6dec370efa894d48d8c55012b0cd6f3c1c7c4616",
        "gas": "0x89d12",
        "value": "0x0",
        "input": "0x6e553f650000000000000000000000000000000000000000000000000073068a3350b6540000000000000000000000006969acca95b7fb9631a114085eeebd161ec19f25",
        "nonce": "0xaa",
        "chainId": "0x1"
      },
      "additionalContracts": [],
      "isFixedGasLimit": false
    },
    {
      "hash": "0x6403e57700312222bfd089c6904cd1fd9b02b98e93bca4e3f9a345ef422a847f",
      "transactionType": "CALL",
      "contractName": null,
      "contractAddress": "0xc02aaa39b223fe8d0a0e5c4f27ead9083c756cc2",
      "function": "deposit()",
      "arguments": [],
      "transaction": {
        "from": "0x6969acca95b7fb9631a114085eeebd161ec19f25",
        "to": "0xc02aaa39b223fe8d0a0e5c4f27ead9083c756cc2",
        "gas": "0xf58c",
        "value": "0x853a0d2313c000",
        "input": "0xd0e30db0",
        "nonce": "0xab",
        "chainId": "0x1"
      },
      "additionalContracts": [],
      "isFixedGasLimit": false
    },
    {
      "hash": "0x69be80ed30c9cd43f10bd0e62bc364dc296fa1229c44d9be465d7f4c2dbd49bb",
      "transactionType": "CALL",
      "contractName": null,
      "contractAddress": "0xc02aaa39b223fe8d0a0e5c4f27ead9083c756cc2",
      "function": "approve(address,uint256)",
      "arguments": [
        "0x6dec370EfA894d48D8C55012B0Cd6f3C1C7C4616",
        "37500000000000000"
      ],
      "transaction": {
        "from": "0x6969acca95b7fb9631a114085eeebd161ec19f25",
        "to": "0xc02aaa39b223fe8d0a0e5c4f27ead9083c756cc2",
        "gas": "0x17e44",
        "value": "0x0",
        "input": "0x095ea7b30000000000000000000000006dec370efa894d48d8c55012b0cd6f3c1c7c461600000000000000000000000000000000000000000000000000853a0d2313c000",
        "nonce": "0xac",
        "chainId": "0x1"
      },
      "additionalContracts": [],
      "isFixedGasLimit": false
    },
    {
      "hash": "0x505bb505595ee6fd6622950a9bb70c87363efdddc57b22fb6cd3c43c3e558c26",
      "transactionType": "CALL",
      "contractName": null,
      "contractAddress": "0x6dec370efa894d48d8c55012b0cd6f3c1c7c4616",
      "function": "openTrove(uint256,uint256)",
      "arguments": [
        "0",
        "0"
      ],
      "transaction": {
        "from": "0x6969acca95b7fb9631a114085eeebd161ec19f25",
        "to": "0x6dec370efa894d48d8c55012b0cd6f3c1c7c4616",
        "gas": "0x1f2cde",
        "value": "0x0",
        "input": "0x4f91aff200000000000000000000000000000000000000000000000000000000000000000000000000000000000000000000000000000000000000000000000000000000",
        "nonce": "0xad",
        "chainId": "0x1"
      },
      "additionalContracts": [],
      "isFixedGasLimit": false
    }
  ],
  "receipts": [
    {
      "status": "0x1",
      "cumulativeGasUsed": "0xe6558e",
      "logs": [
        {
          "address": "0x18084fba666a33d37592fa2633fd49a74dd93a88",
          "topics": [
            "0x8c5be1e5ebec7d5bd14f71427d1e84f3dd0314c0f7b2291e5b200ac8c7c3b925",
            "0x0000000000000000000000006969acca95b7fb9631a114085eeebd161ec19f25",
            "0x0000000000000000000000006dec370efa894d48d8c55012b0cd6f3c1c7c4616"
          ],
          "data": "0x0000000000000000000000000000000000000000000000000073068a3350b654",
          "blockHash": "0x732405dca3df82f0a840573234d96c923d6f28f797dabb01bc5fd02dd37792be",
          "blockNumber": "0x16acd80",
          "blockTimestamp": "0x69134a83",
          "transactionHash": "0x9019649d999cba468da0b5c00b6a59e9e21e042398aa0383112bfc3312d642d0",
          "transactionIndex": "0x94",
          "logIndex": "0x1a1",
          "removed": false
        }
      ],
      "logsBloom": "0x00000000000000000000000000000000000000000000000000000000000000000000000000000000000080000000000000000000000000000000000000200000000000000000000000000000000040002000000000000000000000020000000000000000000000000000000000000000000000000000000000000000000000000000000000000000000000000000000000000000000004000000000000000000020000000000100000000000000000000000000000000000000000000000000000000000000000000000000400000000000000000000000000000000100000000010000000000000000000000000000000000080000000000000000000000000",
      "type": "0x2",
      "transactionHash": "0x9019649d999cba468da0b5c00b6a59e9e21e042398aa0383112bfc3312d642d0",
      "transactionIndex": "0x94",
      "blockHash": "0x732405dca3df82f0a840573234d96c923d6f28f797dabb01bc5fd02dd37792be",
      "blockNumber": "0x16acd80",
      "gasUsed": "0xb721",
      "effectiveGasPrice": "0x1a3b2b7a",
      "from": "0x6969acca95b7fb9631a114085eeebd161ec19f25",
      "to": "0x18084fba666a33d37592fa2633fd49a74dd93a88",
      "contractAddress": null
    },
    {
      "status": "0x1",
      "cumulativeGasUsed": "0xef6b65",
      "logs": [
        {
          "address": "0x18084fba666a33d37592fa2633fd49a74dd93a88",
          "topics": [
            "0x8c5be1e5ebec7d5bd14f71427d1e84f3dd0314c0f7b2291e5b200ac8c7c3b925",
            "0x0000000000000000000000006969acca95b7fb9631a114085eeebd161ec19f25",
            "0x0000000000000000000000006dec370efa894d48d8c55012b0cd6f3c1c7c4616"
          ],
          "data": "0x0000000000000000000000000000000000000000000000000000000000000000",
          "blockHash": "0x23b1fa13230b04e9856b2006f40276669b190adbe5a0a4b318ae929f03983fd5",
          "blockNumber": "0x16acd81",
          "blockTimestamp": "0x69134a8f",
          "transactionHash": "0xd1f1c783dc7ae95b97b71d4d32b21ef30a84390193d0d8877b2255d8aa21a8c4",
          "transactionIndex": "0xc2",
          "logIndex": "0x14d",
          "removed": false
        },
        {
          "address": "0x18084fba666a33d37592fa2633fd49a74dd93a88",
          "topics": [
            "0xddf252ad1be2c89b69c2b068fc378daa952ba7f163c4a11628f55a4df523b3ef",
            "0x0000000000000000000000006969acca95b7fb9631a114085eeebd161ec19f25",
            "0x0000000000000000000000006dec370efa894d48d8c55012b0cd6f3c1c7c4616"
          ],
          "data": "0x0000000000000000000000000000000000000000000000000073068a3350b654",
          "blockHash": "0x23b1fa13230b04e9856b2006f40276669b190adbe5a0a4b318ae929f03983fd5",
          "blockNumber": "0x16acd81",
          "blockTimestamp": "0x69134a8f",
          "transactionHash": "0xd1f1c783dc7ae95b97b71d4d32b21ef30a84390193d0d8877b2255d8aa21a8c4",
          "transactionIndex": "0xc2",
          "logIndex": "0x14e",
          "removed": false
        },
        {
          "address": "0x6dec370efa894d48d8c55012b0cd6f3c1c7c4616",
          "topics": [
            "0xddf252ad1be2c89b69c2b068fc378daa952ba7f163c4a11628f55a4df523b3ef",
            "0x0000000000000000000000000000000000000000000000000000000000000000",
            "0x0000000000000000000000006969acca95b7fb9631a114085eeebd161ec19f25"
          ],
          "data": "0x0000000000000000000000000000000000000000000000000073068a3350b654",
          "blockHash": "0x23b1fa13230b04e9856b2006f40276669b190adbe5a0a4b318ae929f03983fd5",
          "blockNumber": "0x16acd81",
          "blockTimestamp": "0x69134a8f",
          "transactionHash": "0xd1f1c783dc7ae95b97b71d4d32b21ef30a84390193d0d8877b2255d8aa21a8c4",
          "transactionIndex": "0xc2",
          "logIndex": "0x14f",
          "removed": false
        },
        {
          "address": "0x6dec370efa894d48d8c55012b0cd6f3c1c7c4616",
          "topics": [
            "0xdcbc1c05240f31ff3ad067ef1ee35ce4997762752e3a095284754544f4c709d7",
            "0x0000000000000000000000006969acca95b7fb9631a114085eeebd161ec19f25",
            "0x0000000000000000000000006969acca95b7fb9631a114085eeebd161ec19f25"
          ],
          "data": "0x0000000000000000000000000000000000000000000000000073068a3350b6540000000000000000000000000000000000000000000000000073068a3350b654",
          "blockHash": "0x23b1fa13230b04e9856b2006f40276669b190adbe5a0a4b318ae929f03983fd5",
          "blockNumber": "0x16acd81",
          "blockTimestamp": "0x69134a8f",
          "transactionHash": "0xd1f1c783dc7ae95b97b71d4d32b21ef30a84390193d0d8877b2255d8aa21a8c4",
          "transactionIndex": "0xc2",
          "logIndex": "0x150",
          "removed": false
        }
      ],
      "logsBloom": "0x00000000000000000000000000000000000000000000000000000000000000000000000000000000000080000000000000000000000000000000000000200000000000400000000000000008000040002000000000000000000000020000000000000000020000000000000000000800000000000004000004000010000000000000000000000000006000000000000000000000000004000000000000000000020000000000100000000000000000000000000000000000000000000000000000000002000000000000000400000000000000000008000000000000100020000010000000000000000000000000000000000080000000000000000000000000",
      "type": "0x2",
      "transactionHash": "0xd1f1c783dc7ae95b97b71d4d32b21ef30a84390193d0d8877b2255d8aa21a8c4",
      "transactionIndex": "0xc2",
      "blockHash": "0x23b1fa13230b04e9856b2006f40276669b190adbe5a0a4b318ae929f03983fd5",
      "blockNumber": "0x16acd81",
      "gasUsed": "0x40daf",
      "effectiveGasPrice": "0x1953274b",
      "from": "0x6969acca95b7fb9631a114085eeebd161ec19f25",
      "to": "0x6dec370efa894d48d8c55012b0cd6f3c1c7c4616",
      "contractAddress": null
    },
    {
      "status": "0x1",
      "cumulativeGasUsed": "0xf36efd",
      "logs": [
        {
          "address": "0xc02aaa39b223fe8d0a0e5c4f27ead9083c756cc2",
          "topics": [
            "0xe1fffcc4923d04b559f4d29a8bfc6cda04eb5b0d3c460751c2402c5c5cc9109c",
            "0x0000000000000000000000006969acca95b7fb9631a114085eeebd161ec19f25"
          ],
          "data": "0x00000000000000000000000000000000000000000000000000853a0d2313c000",
          "blockHash": "0x23b1fa13230b04e9856b2006f40276669b190adbe5a0a4b318ae929f03983fd5",
          "blockNumber": "0x16acd81",
          "blockTimestamp": "0x69134a8f",
          "transactionHash": "0x6403e57700312222bfd089c6904cd1fd9b02b98e93bca4e3f9a345ef422a847f",
          "transactionIndex": "0xc6",
          "logIndex": "0x157",
          "removed": false
        }
      ],
      "logsBloom": "0x00000000000000000000000000000000000000000000000000000000000000000000000000000000000080000000000002000000080000000000000000000000000000000000000000000000000000002000000000000000000000008000000000000000000000000000000000000000000000000000000000000000000000000000000000000000000000000000000000000001000000000000000000000000000000000000000000000000000000000000000000000000000000000000000000000000000000000000000000000000000000000000000000000000100000000000200000000000000000000000000000000000000000400000000000000000",
      "type": "0x2",
      "transactionHash": "0x6403e57700312222bfd089c6904cd1fd9b02b98e93bca4e3f9a345ef422a847f",
      "transactionIndex": "0xc6",
      "blockHash": "0x23b1fa13230b04e9856b2006f40276669b190adbe5a0a4b318ae929f03983fd5",
      "blockNumber": "0x16acd81",
      "gasUsed": "0x6d22",
      "effectiveGasPrice": "0x1953274b",
      "from": "0x6969acca95b7fb9631a114085eeebd161ec19f25",
      "to": "0xc02aaa39b223fe8d0a0e5c4f27ead9083c756cc2",
      "contractAddress": null
    },
    {
      "status": "0x1",
      "cumulativeGasUsed": "0xce795f",
      "logs": [
        {
          "address": "0xc02aaa39b223fe8d0a0e5c4f27ead9083c756cc2",
          "topics": [
            "0x8c5be1e5ebec7d5bd14f71427d1e84f3dd0314c0f7b2291e5b200ac8c7c3b925",
            "0x0000000000000000000000006969acca95b7fb9631a114085eeebd161ec19f25",
            "0x0000000000000000000000006dec370efa894d48d8c55012b0cd6f3c1c7c4616"
          ],
          "data": "0x00000000000000000000000000000000000000000000000000853a0d2313c000",
          "blockHash": "0x07b4a67dc0d88620ca0ea2422f014d1919f66e62104eb716ac29ec390b89b132",
          "blockNumber": "0x16acd82",
          "blockTimestamp": "0x69134a9b",
          "transactionHash": "0x69be80ed30c9cd43f10bd0e62bc364dc296fa1229c44d9be465d7f4c2dbd49bb",
          "transactionIndex": "0x9f",
          "logIndex": "0x15a",
          "removed": false
        }
      ],
      "logsBloom": "0x00000000000000000000000000000000000000000000000000000000000000000000000000000000000080000000000002000000080000000000000000200000000000000000000000000000000000002000000000000000000000000000000000000000000000000000000000000000000000000000000000000000000000000000000000000000000000000000000000000000000000000000000000000000020000000000100000000000000000000000000000000000000000000000000000000000000000000000000400000000000000000000000000000000100000000010200000000000000000000000000000000080000000000000000000000000",
      "type": "0x2",
      "transactionHash": "0x69be80ed30c9cd43f10bd0e62bc364dc296fa1229c44d9be465d7f4c2dbd49bb",
      "transactionIndex": "0x9f",
      "blockHash": "0x07b4a67dc0d88620ca0ea2422f014d1919f66e62104eb716ac29ec390b89b132",
      "blockNumber": "0x16acd82",
      "gasUsed": "0xb3e4",
      "effectiveGasPrice": "0x18cbfcb3",
      "from": "0x6969acca95b7fb9631a114085eeebd161ec19f25",
      "to": "0xc02aaa39b223fe8d0a0e5c4f27ead9083c756cc2",
      "contractAddress": null
    },
    {
      "status": "0x1",
      "cumulativeGasUsed": "0x10af586",
      "logs": [
        {
          "address": "0xc02aaa39b223fe8d0a0e5c4f27ead9083c756cc2",
          "topics": [
            "0xddf252ad1be2c89b69c2b068fc378daa952ba7f163c4a11628f55a4df523b3ef",
            "0x0000000000000000000000006969acca95b7fb9631a114085eeebd161ec19f25",
            "0x0000000000000000000000006dec370efa894d48d8c55012b0cd6f3c1c7c4616"
          ],
          "data": "0x00000000000000000000000000000000000000000000000000853a0d2313c000",
          "blockHash": "0x5f5e4e7cf478ce0a62f6de8de5afa8f34808ec7375f512e8cb38eec4292e8053",
          "blockNumber": "0x16acd83",
          "blockTimestamp": "0x69134aa7",
          "transactionHash": "0x505bb505595ee6fd6622950a9bb70c87363efdddc57b22fb6cd3c43c3e558c26",
          "transactionIndex": "0xa5",
          "logIndex": "0x195",
          "removed": false
        },
        {
          "address": "0xda9af112edfd837eebc1780433481426a52556e0",
          "topics": [
            "0x3942babd464ceb1c7d319f75245a8cd41334592b45507f072e7020e63c22a8dc",
            "0xe4cd783da363c1fd0f242dd512ce5cd3d87d0ffe252b6dd30ef008acf7d8463f"
          ],
          "data": "0x0000000000000000000000000000000000000000000000000000000000000000",
          "blockHash": "0x5f5e4e7cf478ce0a62f6de8de5afa8f34808ec7375f512e8cb38eec4292e8053",
          "blockNumber": "0x16acd83",
          "blockTimestamp": "0x69134aa7",
          "transactionHash": "0x505bb505595ee6fd6622950a9bb70c87363efdddc57b22fb6cd3c43c3e558c26",
          "transactionIndex": "0xa5",
          "logIndex": "0x196",
          "removed": false
        },
        {
          "address": "0xda9af112edfd837eebc1780433481426a52556e0",
          "topics": [
            "0x649442545e0f313a6d8087b19bc47bd2bd9b63f79d23a773446e00d2ea01d169",
            "0xe4cd783da363c1fd0f242dd512ce5cd3d87d0ffe252b6dd30ef008acf7d8463f"
          ],
          "data": "0x00000000000000000000000000000000000000000000000000000000000000000000000000000000000000000000000000000000000000000000000000000000",
          "blockHash": "0x5f5e4e7cf478ce0a62f6de8de5afa8f34808ec7375f512e8cb38eec4292e8053",
          "blockNumber": "0x16acd83",
          "blockTimestamp": "0x69134aa7",
          "transactionHash": "0x505bb505595ee6fd6622950a9bb70c87363efdddc57b22fb6cd3c43c3e558c26",
          "transactionIndex": "0xa5",
          "logIndex": "0x197",
          "removed": false
        },
        {
          "address": "0x9cf12ccd6020b6888e4d4c4e4c7aca33c1eb91f8",
          "topics": [
            "0xddf252ad1be2c89b69c2b068fc378daa952ba7f163c4a11628f55a4df523b3ef",
            "0x0000000000000000000000000000000000000000000000000000000000000000",
            "0x0000000000000000000000001771f4de6836b10b59dd66990b0190985df6673c"
          ],
          "data": "0x0000000000000000000000000000000000000000000000000251f17cab2b84d5",
          "blockHash": "0x5f5e4e7cf478ce0a62f6de8de5afa8f34808ec7375f512e8cb38eec4292e8053",
          "blockNumber": "0x16acd83",
          "blockTimestamp": "0x69134aa7",
          "transactionHash": "0x505bb505595ee6fd6622950a9bb70c87363efdddc57b22fb6cd3c43c3e558c26",
          "transactionIndex": "0xa5",
          "logIndex": "0x198",
          "removed": false
        },
        {
          "address": "0x9cf12ccd6020b6888e4d4c4e4c7aca33c1eb91f8",
          "topics": [
            "0xddf252ad1be2c89b69c2b068fc378daa952ba7f163c4a11628f55a4df523b3ef",
            "0x0000000000000000000000000000000000000000000000000000000000000000",
            "0x000000000000000000000000545a7ddfd863bd7ea0bfc689125169598085f75e"
          ],
          "data": "0x00000000000000000000000000000000000000000000000006f5d47601828e7d",
          "blockHash": "0x5f5e4e7cf478ce0a62f6de8de5afa8f34808ec7375f512e8cb38eec4292e8053",
          "blockNumber": "0x16acd83",
          "blockTimestamp": "0x69134aa7",
          "transactionHash": "0x505bb505595ee6fd6622950a9bb70c87363efdddc57b22fb6cd3c43c3e558c26",
          "transactionIndex": "0xa5",
          "logIndex": "0x199",
          "removed": false
        },
        {
          "address": "0x545a7ddfd863bd7ea0bfc689125169598085f75e",
          "topics": [
            "0xe367a96648d02811ced605ca0b93efb0b7fe59bda272f8179c454ea64133e756"
          ],
          "data": "0x00000000000000000000000000000000460b2515eaf86d8f535e7820e4a4a57d0000000000000000000000000000000000000000000000000000000000000000",
          "blockHash": "0x5f5e4e7cf478ce0a62f6de8de5afa8f34808ec7375f512e8cb38eec4292e8053",
          "blockNumber": "0x16acd83",
          "blockTimestamp": "0x69134aa7",
          "transactionHash": "0x505bb505595ee6fd6622950a9bb70c87363efdddc57b22fb6cd3c43c3e558c26",
          "transactionIndex": "0xa5",
          "logIndex": "0x19a",
          "removed": false
        },
        {
          "address": "0x18084fba666a33d37592fa2633fd49a74dd93a88",
          "topics": [
            "0xddf252ad1be2c89b69c2b068fc378daa952ba7f163c4a11628f55a4df523b3ef",
            "0x0000000000000000000000006dec370efa894d48d8c55012b0cd6f3c1c7c4616",
            "0x000000000000000000000000b00d1d5dfd72a440b8c04a5f7b5bc3c8159a7f44"
          ],
          "data": "0x0000000000000000000000000000000000000000000000000073068a3350b654",
          "blockHash": "0x5f5e4e7cf478ce0a62f6de8de5afa8f34808ec7375f512e8cb38eec4292e8053",
          "blockNumber": "0x16acd83",
          "blockTimestamp": "0x69134aa7",
          "transactionHash": "0x505bb505595ee6fd6622950a9bb70c87363efdddc57b22fb6cd3c43c3e558c26",
          "transactionIndex": "0xa5",
          "logIndex": "0x19b",
          "removed": false
        },
        {
          "address": "0xb00d1d5dfd72a440b8c04a5f7b5bc3c8159a7f44",
          "topics": [
            "0x9bbe217b4113a0fc957e51f8db99c9989f520e3c6bcca7a8e12c6316eaf995bf"
          ],
          "data": "0x00000000000000000000000000000000000000000000000011a3611ea238bdf1",
          "blockHash": "0x5f5e4e7cf478ce0a62f6de8de5afa8f34808ec7375f512e8cb38eec4292e8053",
          "blockNumber": "0x16acd83",
          "blockTimestamp": "0x69134aa7",
          "transactionHash": "0x505bb505595ee6fd6622950a9bb70c87363efdddc57b22fb6cd3c43c3e558c26",
          "transactionIndex": "0xa5",
          "logIndex": "0x19c",
          "removed": false
        },
        {
          "address": "0x9cf12ccd6020b6888e4d4c4e4c7aca33c1eb91f8",
          "topics": [
            "0xddf252ad1be2c89b69c2b068fc378daa952ba7f163c4a11628f55a4df523b3ef",
            "0x0000000000000000000000000000000000000000000000000000000000000000",
            "0x0000000000000000000000006dec370efa894d48d8c55012b0cd6f3c1c7c4616"
          ],
          "data": "0x00000000000000000000000000000000000000000000006c6b935b8bbd400000",
          "blockHash": "0x5f5e4e7cf478ce0a62f6de8de5afa8f34808ec7375f512e8cb38eec4292e8053",
          "blockNumber": "0x16acd83",
          "blockTimestamp": "0x69134aa7",
          "transactionHash": "0x505bb505595ee6fd6622950a9bb70c87363efdddc57b22fb6cd3c43c3e558c26",
          "transactionIndex": "0xa5",
          "logIndex": "0x19d",
          "removed": false
        },
        {
          "address": "0xc02aaa39b223fe8d0a0e5c4f27ead9083c756cc2",
          "topics": [
            "0xddf252ad1be2c89b69c2b068fc378daa952ba7f163c4a11628f55a4df523b3ef",
            "0x0000000000000000000000006dec370efa894d48d8c55012b0cd6f3c1c7c4616",
            "0x00000000000000000000000062b9eb030ba4cd6fddc6cf48f60e5bca454cb2f2"
          ],
          "data": "0x00000000000000000000000000000000000000000000000000853a0d2313c000",
          "blockHash": "0x5f5e4e7cf478ce0a62f6de8de5afa8f34808ec7375f512e8cb38eec4292e8053",
          "blockNumber": "0x16acd83",
          "blockTimestamp": "0x69134aa7",
          "transactionHash": "0x505bb505595ee6fd6622950a9bb70c87363efdddc57b22fb6cd3c43c3e558c26",
          "transactionIndex": "0xa5",
          "logIndex": "0x19e",
          "removed": false
        },
        {
          "address": "0x7ff33ef1a2dcb95c711cc13b890be183f6288e6b",
          "topics": [
            "0xddf252ad1be2c89b69c2b068fc378daa952ba7f163c4a11628f55a4df523b3ef",
            "0x0000000000000000000000000000000000000000000000000000000000000000",
            "0x0000000000000000000000006dec370efa894d48d8c55012b0cd6f3c1c7c4616",
            "0xe4cd783da363c1fd0f242dd512ce5cd3d87d0ffe252b6dd30ef008acf7d8463f"
          ],
          "data": "0x",
          "blockHash": "0x5f5e4e7cf478ce0a62f6de8de5afa8f34808ec7375f512e8cb38eec4292e8053",
          "blockNumber": "0x16acd83",
          "blockTimestamp": "0x69134aa7",
          "transactionHash": "0x505bb505595ee6fd6622950a9bb70c87363efdddc57b22fb6cd3c43c3e558c26",
          "transactionIndex": "0xa5",
          "logIndex": "0x19f",
          "removed": false
        },
        {
          "address": "0xfb17d0402ae557e3efa549812b95e931b2b63bce",
          "topics": [
            "0x0fba2673863b12c7b8463f3fa2f9b0cb1d534c573cdec5b5d895ee00d6ce6f5e",
            "0xe4cd783da363c1fd0f242dd512ce5cd3d87d0ffe252b6dd30ef008acf7d8463f"
          ],
          "data": "0x00000000000000000000000000000000000000000000006c744e5052ae06e6600000000000000000000000000000000000000000000000000073068a3350b6540000000000000000000000000000000000000000000000000073068a3350b6540000000000000000000000000000000000000000000000000011c37937e0800000000000000000000000000000000000000000000000000000000000000000000000000000000000000000000000000000000000000000000000000000000000",
          "blockHash": "0x5f5e4e7cf478ce0a62f6de8de5afa8f34808ec7375f512e8cb38eec4292e8053",
          "blockNumber": "0x16acd83",
          "blockTimestamp": "0x69134aa7",
          "transactionHash": "0x505bb505595ee6fd6622950a9bb70c87363efdddc57b22fb6cd3c43c3e558c26",
          "transactionIndex": "0xa5",
          "logIndex": "0x1a0",
          "removed": false
        },
        {
          "address": "0xfb17d0402ae557e3efa549812b95e931b2b63bce",
          "topics": [
            "0x962110f281c1213763cd97a546b337b3cbfd25a31ea9723e9d8b7376ba45da1a",
            "0xe4cd783da363c1fd0f242dd512ce5cd3d87d0ffe252b6dd30ef008acf7d8463f"
          ],
          "data": "0x00000000000000000000000000000000000000000000000000000000000000000000000000000000000000000000000000000000000000000011c37937e08000000000000000000000000000000000000000000000000000000000000000000000000000000000000000000000000000000000000000000008baf4c6f0c6e66000000000000000000000000000000000000000000000006c6b935b8bbd40000000000000000000000000000000000000000000000000000000000000000000000000000000000000000000000000000000000000000000000073068a3350b654",
          "blockHash": "0x5f5e4e7cf478ce0a62f6de8de5afa8f34808ec7375f512e8cb38eec4292e8053",
          "blockNumber": "0x16acd83",
          "blockTimestamp": "0x69134aa7",
          "transactionHash": "0x505bb505595ee6fd6622950a9bb70c87363efdddc57b22fb6cd3c43c3e558c26",
          "transactionIndex": "0xa5",
          "logIndex": "0x1a1",
          "removed": false
        },
        {
          "address": "0x9cf12ccd6020b6888e4d4c4e4c7aca33c1eb91f8",
          "topics": [
            "0xddf252ad1be2c89b69c2b068fc378daa952ba7f163c4a11628f55a4df523b3ef",
            "0x0000000000000000000000006dec370efa894d48d8c55012b0cd6f3c1c7c4616",
            "0x00000000000000000000000089e93172aef8261db8437b90c3dcb61545a05317"
          ],
          "data": "0x00000000000000000000000000000000000000000000006c6b935b8bbd400000",
          "blockHash": "0x5f5e4e7cf478ce0a62f6de8de5afa8f34808ec7375f512e8cb38eec4292e8053",
          "blockNumber": "0x16acd83",
          "blockTimestamp": "0x69134aa7",
          "transactionHash": "0x505bb505595ee6fd6622950a9bb70c87363efdddc57b22fb6cd3c43c3e558c26",
          "transactionIndex": "0xa5",
          "logIndex": "0x1a2",
          "removed": false
        },
        {
          "address": "0x89e93172aef8261db8437b90c3dcb61545a05317",
          "topics": [
            "0xddf252ad1be2c89b69c2b068fc378daa952ba7f163c4a11628f55a4df523b3ef",
            "0x0000000000000000000000000000000000000000000000000000000000000000",
            "0x0000000000000000000000006dec370efa894d48d8c55012b0cd6f3c1c7c4616"
          ],
          "data": "0x000000000000000000000000000000000000000000000069a026c77509eab84b",
          "blockHash": "0x5f5e4e7cf478ce0a62f6de8de5afa8f34808ec7375f512e8cb38eec4292e8053",
          "blockNumber": "0x16acd83",
          "blockTimestamp": "0x69134aa7",
          "transactionHash": "0x505bb505595ee6fd6622950a9bb70c87363efdddc57b22fb6cd3c43c3e558c26",
          "transactionIndex": "0xa5",
          "logIndex": "0x1a3",
          "removed": false
        },
        {
          "address": "0x89e93172aef8261db8437b90c3dcb61545a05317",
          "topics": [
            "0xdcbc1c05240f31ff3ad067ef1ee35ce4997762752e3a095284754544f4c709d7",
            "0x0000000000000000000000006dec370efa894d48d8c55012b0cd6f3c1c7c4616",
            "0x0000000000000000000000006dec370efa894d48d8c55012b0cd6f3c1c7c4616"
          ],
          "data": "0x00000000000000000000000000000000000000000000006c6b935b8bbd400000000000000000000000000000000000000000000000000069a026c77509eab84b",
          "blockHash": "0x5f5e4e7cf478ce0a62f6de8de5afa8f34808ec7375f512e8cb38eec4292e8053",
          "blockNumber": "0x16acd83",
          "blockTimestamp": "0x69134aa7",
          "transactionHash": "0x505bb505595ee6fd6622950a9bb70c87363efdddc57b22fb6cd3c43c3e558c26",
          "transactionIndex": "0xa5",
          "logIndex": "0x1a4",
          "removed": false
        },
        {
          "address": "0x9cf12ccd6020b6888e4d4c4e4c7aca33c1eb91f8",
          "topics": [
            "0x8c5be1e5ebec7d5bd14f71427d1e84f3dd0314c0f7b2291e5b200ac8c7c3b925",
            "0x00000000000000000000000089e93172aef8261db8437b90c3dcb61545a05317",
            "0x000000000000000000000000ad7d5d31ffcb96f6f719bb78209019d3d09e6baa"
          ],
          "data": "0x00000000000000000000000000000000000000000000006c6b935b8bbd400000",
          "blockHash": "0x5f5e4e7cf478ce0a62f6de8de5afa8f34808ec7375f512e8cb38eec4292e8053",
          "blockNumber": "0x16acd83",
          "blockTimestamp": "0x69134aa7",
          "transactionHash": "0x505bb505595ee6fd6622950a9bb70c87363efdddc57b22fb6cd3c43c3e558c26",
          "transactionIndex": "0xa5",
          "logIndex": "0x1a5",
          "removed": false
        },
        {
          "address": "0x9cf12ccd6020b6888e4d4c4e4c7aca33c1eb91f8",
          "topics": [
            "0x8c5be1e5ebec7d5bd14f71427d1e84f3dd0314c0f7b2291e5b200ac8c7c3b925",
            "0x00000000000000000000000089e93172aef8261db8437b90c3dcb61545a05317",
            "0x000000000000000000000000ad7d5d31ffcb96f6f719bb78209019d3d09e6baa"
          ],
          "data": "0x0000000000000000000000000000000000000000000000000000000000000000",
          "blockHash": "0x5f5e4e7cf478ce0a62f6de8de5afa8f34808ec7375f512e8cb38eec4292e8053",
          "blockNumber": "0x16acd83",
          "blockTimestamp": "0x69134aa7",
          "transactionHash": "0x505bb505595ee6fd6622950a9bb70c87363efdddc57b22fb6cd3c43c3e558c26",
          "transactionIndex": "0xa5",
          "logIndex": "0x1a6",
          "removed": false
        },
        {
          "address": "0x9cf12ccd6020b6888e4d4c4e4c7aca33c1eb91f8",
          "topics": [
            "0xddf252ad1be2c89b69c2b068fc378daa952ba7f163c4a11628f55a4df523b3ef",
            "0x00000000000000000000000089e93172aef8261db8437b90c3dcb61545a05317",
            "0x000000000000000000000000ad7d5d31ffcb96f6f719bb78209019d3d09e6baa"
          ],
          "data": "0x00000000000000000000000000000000000000000000006c6b935b8bbd400000",
          "blockHash": "0x5f5e4e7cf478ce0a62f6de8de5afa8f34808ec7375f512e8cb38eec4292e8053",
          "blockNumber": "0x16acd83",
          "blockTimestamp": "0x69134aa7",
          "transactionHash": "0x505bb505595ee6fd6622950a9bb70c87363efdddc57b22fb6cd3c43c3e558c26",
          "transactionIndex": "0xa5",
          "logIndex": "0x1a7",
          "removed": false
        },
        {
          "address": "0x9cf12ccd6020b6888e4d4c4e4c7aca33c1eb91f8",
          "topics": [
            "0xddf252ad1be2c89b69c2b068fc378daa952ba7f163c4a11628f55a4df523b3ef",
            "0x0000000000000000000000000000000000000000000000000000000000000000",
            "0x0000000000000000000000001771f4de6836b10b59dd66990b0190985df6673c"
          ],
          "data": "0x00000000000000000000000000000000000000000000000013890bb271f2a069",
          "blockHash": "0x5f5e4e7cf478ce0a62f6de8de5afa8f34808ec7375f512e8cb38eec4292e8053",
          "blockNumber": "0x16acd83",
          "blockTimestamp": "0x69134aa7",
          "transactionHash": "0x505bb505595ee6fd6622950a9bb70c87363efdddc57b22fb6cd3c43c3e558c26",
          "transactionIndex": "0xa5",
          "logIndex": "0x1a8",
          "removed": false
        },
        {
          "address": "0x9cf12ccd6020b6888e4d4c4e4c7aca33c1eb91f8",
          "topics": [
            "0xddf252ad1be2c89b69c2b068fc378daa952ba7f163c4a11628f55a4df523b3ef",
            "0x0000000000000000000000000000000000000000000000000000000000000000",
            "0x00000000000000000000000083e5bde77d7477ecd972e338541b90af57675536"
          ],
          "data": "0x0000000000000000000000000000000000000000000000003a9b231755d7e139",
          "blockHash": "0x5f5e4e7cf478ce0a62f6de8de5afa8f34808ec7375f512e8cb38eec4292e8053",
          "blockNumber": "0x16acd83",
          "blockTimestamp": "0x69134aa7",
          "transactionHash": "0x505bb505595ee6fd6622950a9bb70c87363efdddc57b22fb6cd3c43c3e558c26",
          "transactionIndex": "0xa5",
          "logIndex": "0x1a9",
          "removed": false
        },
        {
          "address": "0x83e5bde77d7477ecd972e338541b90af57675536",
          "topics": [
            "0xe367a96648d02811ced605ca0b93efb0b7fe59bda272f8179c454ea64133e756"
          ],
          "data": "0x000000000000000000000000000000000041686ee0d57c35c1359e749ae9523b0000000000000000000000000000000000000000000000000000000000000000",
          "blockHash": "0x5f5e4e7cf478ce0a62f6de8de5afa8f34808ec7375f512e8cb38eec4292e8053",
          "blockNumber": "0x16acd83",
          "blockTimestamp": "0x69134aa7",
          "transactionHash": "0x505bb505595ee6fd6622950a9bb70c87363efdddc57b22fb6cd3c43c3e558c26",
          "transactionIndex": "0xa5",
          "logIndex": "0x1aa",
          "removed": false
        },
        {
          "address": "0x83e5bde77d7477ecd972e338541b90af57675536",
          "topics": [
            "0xdf459587a9bfd896271616423088d4842cfad6948a5a975c7d82b52d951805e4",
            "0x000000000000000000000000ad7d5d31ffcb96f6f719bb78209019d3d09e6baa"
          ],
          "data": "0x0000000000000000000000000000000000000000000000000000000000000000000000000000000000000000000000000000000000000000000000000000000000000000000000000000000000000000000000000000006c6b935b8bbd4000000000000000000000000000000000000000000000000000029775d864d004476c000000000000000000000000000000000000000000000000000000000000000000000000000000000000000000000000000000000000000000000000000000000000000000000000000000000000000000000000000000000000000000000000",
          "blockHash": "0x5f5e4e7cf478ce0a62f6de8de5afa8f34808ec7375f512e8cb38eec4292e8053",
          "blockNumber": "0x16acd83",
          "blockTimestamp": "0x69134aa7",
          "transactionHash": "0x505bb505595ee6fd6622950a9bb70c87363efdddc57b22fb6cd3c43c3e558c26",
          "transactionIndex": "0xa5",
          "logIndex": "0x1ab",
          "removed": false
        },
        {
          "address": "0x83e5bde77d7477ecd972e338541b90af57675536",
          "topics": [
            "0xbccccd6e317144f41782f2dfb27241c3f8cd514a8959f7fbf1f61e81b131c747",
            "0x000000000000000000000000ad7d5d31ffcb96f6f719bb78209019d3d09e6baa"
          ],
          "data": "0x00000000000000000000000000000000000000000000e3330ea6a738bc33f91f00000000000000000000000000000000000000000000000000000000000000000000000000000000000000000000000000c097ce7bc90715b34b9f10000000000000000000000000000000000000000000000000000000000000000000000000000000000000000000000000000000000041686ee0d57c35c1359e749ae9523b0000000000000000000000000000000000000000000000000000000000000000",
          "blockHash": "0x5f5e4e7cf478ce0a62f6de8de5afa8f34808ec7375f512e8cb38eec4292e8053",
          "blockNumber": "0x16acd83",
          "blockTimestamp": "0x69134aa7",
          "transactionHash": "0x505bb505595ee6fd6622950a9bb70c87363efdddc57b22fb6cd3c43c3e558c26",
          "transactionIndex": "0xa5",
          "logIndex": "0x1ac",
          "removed": false
        },
        {
          "address": "0x9cf12ccd6020b6888e4d4c4e4c7aca33c1eb91f8",
          "topics": [
            "0xddf252ad1be2c89b69c2b068fc378daa952ba7f163c4a11628f55a4df523b3ef",
            "0x000000000000000000000000ad7d5d31ffcb96f6f719bb78209019d3d09e6baa",
            "0x00000000000000000000000083e5bde77d7477ecd972e338541b90af57675536"
          ],
          "data": "0x00000000000000000000000000000000000000000000006c6b935b8bbd400000",
          "blockHash": "0x5f5e4e7cf478ce0a62f6de8de5afa8f34808ec7375f512e8cb38eec4292e8053",
          "blockNumber": "0x16acd83",
          "blockTimestamp": "0x69134aa7",
          "transactionHash": "0x505bb505595ee6fd6622950a9bb70c87363efdddc57b22fb6cd3c43c3e558c26",
          "transactionIndex": "0xa5",
          "logIndex": "0x1ad",
          "removed": false
        },
        {
          "address": "0x83e5bde77d7477ecd972e338541b90af57675536",
          "topics": [
            "0xd86fb5f91c764c66ffa0ee206b53b8bb35a30494d6ded98f9b78cd12d4fe499e"
          ],
          "data": "0x0000000000000000000000000000000000000000000105a6e2b959a3d55171eb",
          "blockHash": "0x5f5e4e7cf478ce0a62f6de8de5afa8f34808ec7375f512e8cb38eec4292e8053",
          "blockNumber": "0x16acd83",
          "blockTimestamp": "0x69134aa7",
          "transactionHash": "0x505bb505595ee6fd6622950a9bb70c87363efdddc57b22fb6cd3c43c3e558c26",
          "transactionIndex": "0xa5",
          "logIndex": "0x1ae",
          "removed": false
        },
        {
          "address": "0xad7d5d31ffcb96f6f719bb78209019d3d09e6baa",
          "topics": [
            "0xddf252ad1be2c89b69c2b068fc378daa952ba7f163c4a11628f55a4df523b3ef",
            "0x0000000000000000000000000000000000000000000000000000000000000000",
            "0x00000000000000000000000089e93172aef8261db8437b90c3dcb61545a05317"
          ],
          "data": "0x00000000000000000000000000000000000000000000006ad75aa0f8f531f967",
          "blockHash": "0x5f5e4e7cf478ce0a62f6de8de5afa8f34808ec7375f512e8cb38eec4292e8053",
          "blockNumber": "0x16acd83",
          "blockTimestamp": "0x69134aa7",
          "transactionHash": "0x505bb505595ee6fd6622950a9bb70c87363efdddc57b22fb6cd3c43c3e558c26",
          "transactionIndex": "0xa5",
          "logIndex": "0x1af",
          "removed": false
        },
        {
          "address": "0xad7d5d31ffcb96f6f719bb78209019d3d09e6baa",
          "topics": [
            "0xdcbc1c05240f31ff3ad067ef1ee35ce4997762752e3a095284754544f4c709d7",
            "0x00000000000000000000000089e93172aef8261db8437b90c3dcb61545a05317",
            "0x00000000000000000000000089e93172aef8261db8437b90c3dcb61545a05317"
          ],
          "data": "0x00000000000000000000000000000000000000000000006c6b935b8bbd40000000000000000000000000000000000000000000000000006ad75aa0f8f531f967",
          "blockHash": "0x5f5e4e7cf478ce0a62f6de8de5afa8f34808ec7375f512e8cb38eec4292e8053",
          "blockNumber": "0x16acd83",
          "blockTimestamp": "0x69134aa7",
          "transactionHash": "0x505bb505595ee6fd6622950a9bb70c87363efdddc57b22fb6cd3c43c3e558c26",
          "transactionIndex": "0xa5",
          "logIndex": "0x1b0",
          "removed": false
        },
        {
          "address": "0x9cf12ccd6020b6888e4d4c4e4c7aca33c1eb91f8",
          "topics": [
            "0x8c5be1e5ebec7d5bd14f71427d1e84f3dd0314c0f7b2291e5b200ac8c7c3b925",
            "0x00000000000000000000000089e93172aef8261db8437b90c3dcb61545a05317",
            "0x000000000000000000000000ad7d5d31ffcb96f6f719bb78209019d3d09e6baa"
          ],
          "data": "0x0000000000000000000000000000000000000000000000000000000000000000",
          "blockHash": "0x5f5e4e7cf478ce0a62f6de8de5afa8f34808ec7375f512e8cb38eec4292e8053",
          "blockNumber": "0x16acd83",
          "blockTimestamp": "0x69134aa7",
          "transactionHash": "0x505bb505595ee6fd6622950a9bb70c87363efdddc57b22fb6cd3c43c3e558c26",
          "transactionIndex": "0xa5",
          "logIndex": "0x1b1",
          "removed": false
        },
        {
          "address": "0x89e93172aef8261db8437b90c3dcb61545a05317",
          "topics": [
            "0x5e2b8821ad6e0e26207e0cb4d242d07eeb1cbb1cfd853e645bdcd27cc5484f95",
            "0x000000000000000000000000ad7d5d31ffcb96f6f719bb78209019d3d09e6baa"
          ],
          "data": "0x00000000000000000000000000000000000000000000e2481a2be340af00862000000000000000000000000000000000000000000000e2b485bf3ecc6c408620",
          "blockHash": "0x5f5e4e7cf478ce0a62f6de8de5afa8f34808ec7375f512e8cb38eec4292e8053",
          "blockNumber": "0x16acd83",
          "blockTimestamp": "0x69134aa7",
          "transactionHash": "0x505bb505595ee6fd6622950a9bb70c87363efdddc57b22fb6cd3c43c3e558c26",
          "transactionIndex": "0xa5",
          "logIndex": "0x1b2",
          "removed": false
        }
      ],
      "logsBloom": "0x08000020000000000080800000000000000010800000000000000000000000040800000000000000100080002000000002000000080000000000400004221000000001400000000000000009000040002810002400070011140401821000000200400400020000000100000000000a00000000000004a080004000900080010508000001000010002000000000000000008000000000040000200000000000200600000000003000000000000040000000000800000080000800100040008000000000020000000000000004000000000100000000082000000300011000600008102001000000010002408004000000000100a0a80080000000000000000080",
      "type": "0x2",
      "transactionHash": "0x505bb505595ee6fd6622950a9bb70c87363efdddc57b22fb6cd3c43c3e558c26",
      "transactionIndex": "0xa5",
      "blockHash": "0x5f5e4e7cf478ce0a62f6de8de5afa8f34808ec7375f512e8cb38eec4292e8053",
      "blockNumber": "0x16acd83",
      "gasUsed": "0xeabb4",
      "effectiveGasPrice": "0x181fc13c",
      "from": "0x6969acca95b7fb9631a114085eeebd161ec19f25",
      "to": "0x6dec370efa894d48d8c55012b0cd6f3c1c7c4616",
      "contractAddress": null
    }
  ],
  "libraries": [],
  "pending": [],
  "returns": {},
  "timestamp": 1762871979397,
  "chain": 1,
  "commit": "d365c12"
}